:010000000AF5
:0100010006F8
:010002000EEF
:0100030000FC
:0100040008F3
:0100050004F6
:010006000CED
:0100070002F6
:0100080004F3
:010009000CEA
:01000A0002F3
:01000B000AEA
:01000C0006ED
:01000D000EE4
:01000E0001F0
:01000F0009E7
:010010000EE1
:0100110001ED
:0100120009E4
:0100130005E7
:010014000DDE
:0100150003E7
:010016000BDE
:0100170007E1
:0100180003E4
:010019000BDB
:01001A0007DE
:01001B000FD5
:01001C0000E3
:01001D0008DA
:01001E0004DD
:01001F000CD4
:010020000BD4
:0100210007D7
:010022000FCE
:0100230001DB
:0100240009D2
:0100250005D5
:010026000DCC
:0100270003D5
:0100280005D2
:010029000DC9
:01002A0003D2
:01002B000BC9
:01002C0007CC
:01002D000FC3
:01002E0000D1
:01002F0008C8
:010030000FC0
:0100310000CE
:0100320008C5
:0100330004C8
:010034000CBF
:0100350002C8
:010036000ABF
:0100370006C2
:0100380002C5
:010039000ABC
:01003A0006BF
:01003B000EB6
:01003C0001C2
:01003D0009B9
:01003E0005BC
:01003F000DB3
:010040000AB5
:0100410006B8
:010042000EAF
:0100430000BC
:0100440008B3
:0100450004B6
:010046000CAD
:0100470002B6
:0100480004B3
:010049000CAA
:01004A0002B3
:01004B000AAA
:01004C0006AD
:01004D000EA4
:01004E0001B0
:01004F0009A7
:010050000EA1
:0100510001AD
:0100520009A4
:0100530005A7
:010054000D9E
:0100550003A7
:010056000B9E
:0100570007A1
:0100580003A4
:010059000B9B
:01005A00079E
:01005B000F95
:01005C0000A3
:01005D00089A
:01005E00049D
:01005F000C94
:010060000B94
:010061000797
:010062000F8E
:01006300019B
:010064000992
:010065000595
:010066000D8C
:010067000395
:010068000592
:010069000D89
:01006A000392
:01006B000B89
:01006C00078C
:01006D000F83
:01006E000091
:01006F000888
:010070000F80
:01007100008E
:010072000885
:010073000488
:010074000C7F
:010075000288
:010076000A7F
:010077000682
:010078000285
:010079000A7C
:01007A00067F
:01007B000E76
:01007C000182
:01007D000979
:01007E00057C
:01007F000D73
:010080000F70
:010081000F6F
:010082000F6E
:010083000F6D
:010084000F6C
:010085000F6B
:010086000F6A
:010087000F69
:010088000F68
:010089000F67
:01008A000F66
:01008B000F65
:01008C000F64
:01008D000F63
:01008E000F62
:01008F000F61
:010090000F60
:010091000F5F
:010092000F5E
:010093000F5D
:010094000F5C
:010095000F5B
:010096000F5A
:010097000F59
:010098000F58
:010099000F57
:01009A000F56
:01009B000F55
:01009C000F54
:01009D000F53
:01009E000F52
:01009F000F51
:0100A000005F
:0100A1000856
:0100A2000459
:0100A3000C50
:0100A4000259
:0100A5000A50
:0100A6000653
:0100A7000E4A
:0100A8000057
:0100A900084E
:0100AA000451
:0100AB000C48
:0100AC000251
:0100AD000A48
:0100AE00064B
:0100AF000E42
:0100B000004F
:0100B1000846
:0100B2000449
:0100B3000C40
:0100B4000249
:0100B5000A40
:0100B6000643
:0100B7000E3A
:0100B8000047
:0100B900083E
:0100BA000441
:0100BB000C38
:0100BC000241
:0100BD000A38
:0100BE00063B
:0100BF000E32
:0100C000003F
:0100C1000836
:0100C2000439
:0100C3000C30
:0100C4000239
:0100C5000A30
:0100C6000633
:0100C7000E2A
:0100C8000037
:0100C900082E
:0100CA000431
:0100CB000C28
:0100CC000231
:0100CD000A28
:0100CE00062B
:0100CF000E22
:0100D000002F
:0100D1000826
:0100D2000429
:0100D3000C20
:0100D4000229
:0100D5000A20
:0100D6000623
:0100D7000E1A
:0100D8000027
:0100D900081E
:0100DA000421
:0100DB000C18
:0100DC000221
:0100DD000A18
:0100DE00061B
:0100DF000E12
:0100E000001F
:0100E1000816
:0100E2000419
:0100E3000C10
:0100E400001B
:0100E5000812
:0100E6000415
:0100E7000C0C
:0100E8000215
:0100E9000A0C
:0100EA00060F
:0100EB000E06
:0100EC000211
:0100ED000A08
:0100EE00060B
:0100EF000E02
:0100F000000F
:0100F1000806
:0100F2000409
:0100F3000C00
:0100F400000B
:0100F5000802
:0100F6000405
:0100F7000CFC
:0100F8000205
:0100F9000AFC
:0100FA0006FF
:0100FB000EF6
:0100FC000201
:0100FD000AF8
:0100FE0006FB
:0100FF000EF2
:00000001FF
