:0100000006F9
:0100010006F8
:0100020000FD
:0100030000FC
:0100040006F5
:0100050006F4
:0100060002F7
:0100070002F6
:010008000FE8
:010009000FE7
:01000A0009EC
:01000B0009EB
:01000C000FE4
:01000D000FE3
:01000E000BE6
:01000F000BE5
:0100100006E9
:0100110006E8
:0100120000ED
:0100130000EC
:0100140006E5
:0100150006E4
:0100160002E7
:0100170002E6
:010018000FD8
:010019000FD7
:01001A0009DC
:01001B0009DB
:01001C000FD4
:01001D000FD3
:01001E000BD6
:01001F000BD5
:0100200000DF
:0100210009D5
:0100220000DD
:0100230009D3
:0100240000DB
:0100250009D1
:0100260000D9
:0100270009CF
:0100280000D7
:0100290009CD
:01002A0000D5
:01002B0009CB
:01002C0000D3
:01002D0009C9
:01002E0000D1
:01002F0009C7
:0100300004CB
:010031000DC1
:0100320004C9
:010033000DBF
:0100340004C7
:010035000DBD
:0100360004C5
:010037000DBB
:0100380004C3
:010039000DB9
:01003A0004C1
:01003B000DB7
:01003C0004BF
:01003D000DB5
:01003E0004BD
:01003F000DB3
:0100400006B9
:0100410006B8
:0100420000BD
:0100430000BC
:0100440006B5
:0100450006B4
:0100460002B7
:0100470002B6
:010048000FA8
:010049000FA7
:01004A0009AC
:01004B0009AB
:01004C000FA4
:01004D000FA3
:01004E000BA6
:01004F000BA5
:0100500006A9
:0100510006A8
:0100520000AD
:0100530000AC
:0100540006A5
:0100550006A4
:0100560002A7
:0100570002A6
:010058000F98
:010059000F97
:01005A00099C
:01005B00099B
:01005C000F94
:01005D000F93
:01005E000B96
:01005F000B95
:01006000029D
:010061000B93
:01006200029B
:010063000B91
:010064000299
:010065000B8F
:010066000297
:010067000B8D
:010068000295
:010069000B8B
:01006A000293
:01006B000B89
:01006C000291
:01006D000B87
:01006E00028F
:01006F000B85
:010070000689
:010071000F7F
:010072000687
:010073000F7D
:010074000685
:010075000F7B
:010076000683
:010077000F79
:010078000681
:010079000F77
:01007A00067F
:01007B000F75
:01007C00067D
:01007D000F73
:01007E00067B
:01007F000F71
:010080000679
:010081000678
:01008200007D
:01008300007C
:010084000477
:010085000476
:010086000277
:010087000276
:010088000770
:01008900076F
:01008A000174
:01008B000173
:01008C00056E
:01008D00056D
:01008E00036E
:01008F00036D
:010090000669
:010091000668
:010092000469
:010093000468
:010094000467
:010095000466
:010096000663
:010097000662
:010098000760
:01009900075F
:01009A000560
:01009B00055F
:01009C00055E
:01009D00055D
:01009E00075A
:01009F000759
:0100A0000659
:0100A1000658
:0100A2000855
:0100A3000854
:0100A4000457
:0100A5000456
:0100A6000A4F
:0100A7000A4E
:0100A8000750
:0100A900074F
:0100AA00094C
:0100AB00094B
:0100AC00054E
:0100AD00054D
:0100AE000B46
:0100AF000B45
:0100B0000649
:0100B1000648
:0100B2000C41
:0100B3000844
:0100B4000447
:0100B5000446
:0100B6000E3B
:0100B7000A3E
:0100B8000740
:0100B900073F
:0100BA000D38
:0100BB00093B
:0100BC00053E
:0100BD00053D
:0100BE000F32
:0100BF000B35
:0100C0000639
:0100C1000638
:0100C200003D
:0100C300003C
:0100C4000437
:0100C5000436
:0100C6000237
:0100C7000236
:0100C8000730
:0100C900072F
:0100CA000134
:0100CB000133
:0100CC00052E
:0100CD00052D
:0100CE00032E
:0100CF00032D
:0100D0000629
:0100D1000628
:0100D2000429
:0100D3000428
:0100D4000427
:0100D5000426
:0100D6000623
:0100D7000622
:0100D8000720
:0100D900071F
:0100DA000520
:0100DB00051F
:0100DC00051E
:0100DD00051D
:0100DE00071A
:0100DF000719
:0100E0000619
:0100E1000618
:0100E2000815
:0100E3000814
:0100E4000417
:0100E5000416
:0100E6000A0F
:0100E7000A0E
:0100E8000710
:0100E900070F
:0100EA00090C
:0100EB00090B
:0100EC00050E
:0100ED00050D
:0100EE000B06
:0100EF000B05
:0100F0000609
:0100F1000608
:0100F2000C01
:0100F3000804
:0100F4000407
:0100F5000406
:0100F6000EFB
:0100F7000AFE
:0100F8000700
:0100F90007FF
:0100FA000DF8
:0100FB0009FB
:0100FC0005FE
:0100FD0005FD
:0100FE000FF2
:0100FF000BF5
:00000001FF
