:01000000A25D
:0100010020DE
:01000200A05D
:0100030000FC
:01000400A259
:0100050003F7
:010006008673
:010007003CBC
:0100080020D7
:01000900CB2B
:01000A00FFF6
:01000B00BA3A
:01000C00BD36
:01000D0000F2
:01000E0001F0
:01000F000AE6
:010010000AE5
:010011000AE4
:010012000AE3
:010013008567
:010014002BC0
:01001500AA40
:01001600A940
:010017009256
:010018009D4A
:010019008363
:01001A00C025
:01001B00A93B
:01001C00BD26
:01001D009D45
:01001E00875A
:01001F00C020
:01002000A936
:010021000FCF
:010022009D40
:010023008359
:01002400C01B
:01002500A931
:0100260009D0
:010027009D3B
:010028008750
:01002900C016
:01002A00BD18
:01002B008153
:01002C00C013
:01002D0030A2
:01002E00FBD6
:01002F0029A7
:01003000408F
:01003100F0DE
:0100320011BC
:010033009D2F
:010034008942
:01003500C00A
:01003600A920
:01003700B414
:01003800A027
:0100390010B6
:01003A00883D
:01003B00D0F4
:01003C00FDC6
:01003D00388A
:01003E00E9D8
:01003F0001BF
:01004000D0EF
:01004100F6C8
:01004200F0CD
:01004300E6D6
:010044008536
:010045002694
:010046008534
:010047004177
:010048008532
:010049003D79
:01004A00A90C
:01004B0008AC
:01004C00852E
:01004D00278B
:01004E00D0E1
:01004F000CA4
:01005000A807
:01005100C3EB
:01005200A904
:01005300D0DC
:01005400C8E3
:01005500C9E1
:01005600CCDD
:01005700C9DF
:01005800D0D7
:01005900D0D6
:01005A00CFD6
:01005B00D6CE
:01005C009D06
:01005D008A18
:01005E00C0E1
:01005F00BDE3
:010060008619
:01006100C0DE
:010062000A93
:01006300306C
:01006400FAA1
:01006500BDDD
:010066008415
:01006700C0D8
:01006800BDDA
:010069008610
:01006A00C0D5
:01006B001084
:01006C00FB98
:01006D00BDD5
:01006E00840D
:01006F00C0D0
:01007000C9C6
:0100710095F9
:01007200D0BD
:01007300E8A4
:010074009DEE
:010075008A00
:01007600C0C9
:01007700BDCB
:010078008601
:01007900C0C6
:01007A001075
:01007B00FB89
:01007C00BDC6
:01007D0084FE
:01007E00C0C1
:01007F00C9B7
:010080006A15
:01008100D0AE
:01008200D9A4
:01008300BDBF
:0100840086F5
:01008500C0BA
:010086001069
:01008700FB7D
:01008800BDBA
:0100890084F2
:01008A00C0B5
:01008B00BDB7
:01008C0086ED
:01008D00C0B2
:01008E001061
:01008F00FB75
:01009000BDB2
:0100910084EA
:01009200C0AD
:01009300C5A7
:01009400412A
:01009500D09A
:01009600C5A4
:01009700BDAB
:0100980086E1
:01009900C0A6
:01009A001055
:01009B00FB69
:01009C00BDA6
:01009D0084DE
:01009E00C0A1
:01009F00C59B
:0100A0003D22
:0100A100D08E
:0100A200B9A4
:0100A300A0BC
:0100A400005B
:0100A50084D6
:0100A6003C1D
:0100A7009DBB
:0100A8008ACD
:0100A900C096
:0100AA00BD98
:0100AB0086CE
:0100AC00C093
:0100AD000A48
:0100AE003021
:0100AF00FA56
:0100B000BD92
:0100B10084CA
:0100B200C08D
:0100B300BD8F
:0100B40086C5
:0100B500C08A
:0100B6001039
:0100B700FB4D
:0100B800BD8A
:0100B90084C2
:0100BA00C085
:0100BB00C97B
:0100BC006AD9
:0100BD00D072
:0100BE00E859
:0100BF009DA3
:0100C0008AB5
:0100C100C07E
:0100C200BD80
:0100C30086B6
:0100C400C07B
:0100C500102A
:0100C600FB3E
:0100C700BD7B
:0100C80084B3
:0100C900C076
:0100CA00C96C
:0100CB00959F
:0100CC00D063
:0100CD00D959
:0100CE001819
:0100CF00BD73
:0100D00086A9
:0100D100C06E
:0100D200101D
:0100D300FB31
:0100D400BD6E
:0100D50084A6
:0100D600C069
:0100D7009197
:0100D8002601
:0100D90065C1
:0100DA003CE9
:0100DB00859F
:0100DC003CE7
:0100DD00C85A
:0100DE00D051
:0100DF00EF31
:0100E000BD62
:0100E1008698
:0100E200C05D
:0100E300100C
:0100E400FB20
:0100E500BD5D
:0100E6008495
:0100E700C058
:0100E800C552
:0100E9003CDA
:0100EA00D045
:0100EB00B55F
:0100EC00E62D
:0100ED0027EB
:0100EE00E62B
:0100EF003DD3
:0100F000A56A
:0100F1003DD1
:0100F200CD40
:0100F300000C
:0100F4000803
:0100F500A664
:0100F6002BDE
:0100F7009078
:0100F800A85F
:0100F9004CBA
:0100FA000104
:0100FB0008FC
:0100FC000102
:0100FD000200
:0100FE0034CD
:0100FF0002FE
:00000001FF
